{
  "contractName": "Voting",
  "abi": [
    {
      "anonymous": false,
      "inputs": [
        {
          "indexed": true,
          "internalType": "address",
          "name": "previousOwner",
          "type": "address"
        },
        {
          "indexed": true,
          "internalType": "address",
          "name": "newOwner",
          "type": "address"
        }
      ],
      "name": "OwnershipTransferred",
      "type": "event"
    },
    {
      "anonymous": false,
      "inputs": [
        {
          "indexed": false,
          "internalType": "uint256",
          "name": "proposalId",
          "type": "uint256"
        }
      ],
      "name": "ProposalRegistered",
      "type": "event"
    },
    {
      "anonymous": false,
      "inputs": [
        {
          "indexed": false,
          "internalType": "address",
          "name": "voter",
          "type": "address"
        },
        {
          "indexed": false,
          "internalType": "uint256",
          "name": "proposalId",
          "type": "uint256"
        }
      ],
      "name": "Voted",
      "type": "event"
    },
    {
      "anonymous": false,
      "inputs": [
        {
          "indexed": false,
          "internalType": "address",
          "name": "voterAddress",
          "type": "address"
        }
      ],
      "name": "VoterRegistered",
      "type": "event"
    },
    {
      "anonymous": false,
      "inputs": [
        {
          "indexed": false,
          "internalType": "enum Voting.WorkflowStatus",
          "name": "previousStatus",
          "type": "uint8"
        },
        {
          "indexed": false,
          "internalType": "enum Voting.WorkflowStatus",
          "name": "newStatus",
          "type": "uint8"
        }
      ],
      "name": "WorkflowStatusChange",
      "type": "event"
    },
    {
      "inputs": [],
      "name": "owner",
      "outputs": [
        {
          "internalType": "address",
          "name": "",
          "type": "address"
        }
      ],
      "stateMutability": "view",
      "type": "function",
      "constant": true
    },
    {
      "inputs": [],
      "name": "renounceOwnership",
      "outputs": [],
      "stateMutability": "nonpayable",
      "type": "function"
    },
    {
      "inputs": [
        {
          "internalType": "address",
          "name": "newOwner",
          "type": "address"
        }
      ],
      "name": "transferOwnership",
      "outputs": [],
      "stateMutability": "nonpayable",
      "type": "function"
    },
    {
      "inputs": [],
      "name": "winningProposalID",
      "outputs": [
        {
          "internalType": "uint256",
          "name": "",
          "type": "uint256"
        }
      ],
      "stateMutability": "view",
      "type": "function",
      "constant": true
    },
    {
      "inputs": [],
      "name": "workflowStatus",
      "outputs": [
        {
          "internalType": "enum Voting.WorkflowStatus",
          "name": "",
          "type": "uint8"
        }
      ],
      "stateMutability": "view",
      "type": "function",
      "constant": true
    },
    {
      "inputs": [
        {
          "internalType": "address",
          "name": "_addr",
          "type": "address"
        }
      ],
      "name": "getVoter",
      "outputs": [
        {
          "components": [
            {
              "internalType": "bool",
              "name": "isRegistered",
              "type": "bool"
            },
            {
              "internalType": "bool",
              "name": "hasVoted",
              "type": "bool"
            },
            {
              "internalType": "uint256",
              "name": "votedProposalId",
              "type": "uint256"
            }
          ],
          "internalType": "struct Voting.Voter",
          "name": "",
          "type": "tuple"
        }
      ],
      "stateMutability": "view",
      "type": "function",
      "constant": true
    },
    {
      "inputs": [
        {
          "internalType": "uint256",
          "name": "_id",
          "type": "uint256"
        }
      ],
      "name": "getOneProposal",
      "outputs": [
        {
          "components": [
            {
              "internalType": "string",
              "name": "description",
              "type": "string"
            },
            {
              "internalType": "uint256",
              "name": "voteCount",
              "type": "uint256"
            }
          ],
          "internalType": "struct Voting.Proposal",
          "name": "",
          "type": "tuple"
        }
      ],
      "stateMutability": "view",
      "type": "function",
      "constant": true
    },
    {
      "inputs": [],
      "name": "getProposals",
      "outputs": [
        {
          "components": [
            {
              "internalType": "string",
              "name": "description",
              "type": "string"
            },
            {
              "internalType": "uint256",
              "name": "voteCount",
              "type": "uint256"
            }
          ],
          "internalType": "struct Voting.Proposal[]",
          "name": "",
          "type": "tuple[]"
        }
      ],
      "stateMutability": "view",
      "type": "function",
      "constant": true
    },
    {
      "inputs": [
        {
          "internalType": "address",
          "name": "_addr",
          "type": "address"
        }
      ],
      "name": "addVoter",
      "outputs": [],
      "stateMutability": "nonpayable",
      "type": "function"
    },
    {
      "inputs": [
        {
          "internalType": "string",
          "name": "_desc",
          "type": "string"
        }
      ],
      "name": "addProposal",
      "outputs": [],
      "stateMutability": "nonpayable",
      "type": "function"
    },
    {
      "inputs": [
        {
          "internalType": "uint256",
          "name": "_id",
          "type": "uint256"
        }
      ],
      "name": "setVote",
      "outputs": [],
      "stateMutability": "nonpayable",
      "type": "function"
    },
    {
      "inputs": [],
      "name": "startProposalsRegistering",
      "outputs": [],
      "stateMutability": "nonpayable",
      "type": "function"
    },
    {
      "inputs": [],
      "name": "endProposalsRegistering",
      "outputs": [],
      "stateMutability": "nonpayable",
      "type": "function"
    },
    {
      "inputs": [],
      "name": "startVotingSession",
      "outputs": [],
      "stateMutability": "nonpayable",
      "type": "function"
    },
    {
      "inputs": [],
      "name": "endVotingSession",
      "outputs": [],
      "stateMutability": "nonpayable",
      "type": "function"
    },
    {
      "inputs": [],
      "name": "tallyVotes",
      "outputs": [],
      "stateMutability": "nonpayable",
      "type": "function"
    }
  ],
  "bytecode": "0x60806040523480156200001157600080fd5b5062000032620000266200003860201b60201c565b6200004060201b60201c565b62000104565b600033905090565b60008060009054906101000a900473ffffffffffffffffffffffffffffffffffffffff169050816000806101000a81548173ffffffffffffffffffffffffffffffffffffffff021916908373ffffffffffffffffffffffffffffffffffffffff1602179055508173ffffffffffffffffffffffffffffffffffffffff168173ffffffffffffffffffffffffffffffffffffffff167f8be0079c531659141344cd1fd0a4f28419497f9722a3daafe3b4186f6b6457e060405160405180910390a35050565b6126fe80620001146000396000f3fe608060405234801561001057600080fd5b50600436106101005760003560e01c8063a7bfab1611610097578063d4f50f9811610066578063d4f50f9814610217578063ee74c67814610247578063f2fde38b14610251578063f4ab9adf1461026d57610100565b8063a7bfab16146101db578063bdc01431146101e5578063c7038a4e14610203578063c88af42f1461020d57610100565b8063715018a6116100d3578063715018a6146101655780638da5cb5b1461016f578063a1edffa21461018d578063a2788cce146101ab57610100565b8063230796ae146101055780632fdae3c514610121578063378a21781461013d57806362564c4814610147575b600080fd5b61011f600480360381019061011a91906115d9565b610289565b005b61013b6004803603810190610136919061166b565b6105e0565b005b610145610863565b005b61014f610949565b60405161015c9190611856565b60405180910390f35b61016d610ad3565b005b610177610ae7565b60405161018491906118b9565b60405180910390f35b610195610b10565b6040516101a2919061194b565b60405180910390f35b6101c560048036038101906101c091906115d9565b610b23565b6040516101d291906119a3565b60405180910390f35b6101e3610c8a565b005b6101ed610d70565b6040516101fa91906119d4565b60405180910390f35b61020b610d76565b005b610215610ef1565b005b610231600480360381019061022c9190611a1b565b610fd6565b60405161023e9190611aa5565b60405180910390f35b61024f6110fe565b005b61026b60048036038101906102669190611a1b565b6111e4565b005b61028760048036038101906102829190611a1b565b611267565b005b600460003373ffffffffffffffffffffffffffffffffffffffff1673ffffffffffffffffffffffffffffffffffffffff16815260200190815260200160002060000160009054906101000a900460ff16610318576040517f08c379a000000000000000000000000000000000000000000000000000000000815260040161030f90611b1d565b60405180910390fd5b6003600581111561032c5761032b6118d4565b5b600260009054906101000a900460ff16600581111561034e5761034d6118d4565b5b1461038e576040517f08c379a000000000000000000000000000000000000000000000000000000000815260040161038590611baf565b60405180910390fd5b60011515600460003373ffffffffffffffffffffffffffffffffffffffff1673ffffffffffffffffffffffffffffffffffffffff16815260200190815260200160002060000160019054906101000a900460ff16151503610424576040517f08c379a000000000000000000000000000000000000000000000000000000000815260040161041b90611c1b565b60405180910390fd5b600380549050811061046b576040517f08c379a000000000000000000000000000000000000000000000000000000000815260040161046290611c87565b60405180910390fd5b80600460003373ffffffffffffffffffffffffffffffffffffffff1673ffffffffffffffffffffffffffffffffffffffff168152602001908152602001600020600101819055506001600460003373ffffffffffffffffffffffffffffffffffffffff1673ffffffffffffffffffffffffffffffffffffffff16815260200190815260200160002060000160016101000a81548160ff0219169083151502179055506003818154811061052157610520611ca7565b5b9060005260206000209060020201600101600081548092919061054390611d05565b919050555060036001548154811061055e5761055d611ca7565b5b9060005260206000209060020201600101546003828154811061058457610583611ca7565b5b90600052602060002090600202016001015411156105a457806001819055505b7f4d99b957a2bc29a30ebd96a7be8e68fe50a3c701db28a91436490b7d53870ca433826040516105d5929190611d4d565b60405180910390a150565b600460003373ffffffffffffffffffffffffffffffffffffffff1673ffffffffffffffffffffffffffffffffffffffff16815260200190815260200160002060000160009054906101000a900460ff1661066f576040517f08c379a000000000000000000000000000000000000000000000000000000000815260040161066690611b1d565b60405180910390fd5b60016005811115610683576106826118d4565b5b600260009054906101000a900460ff1660058111156106a5576106a46118d4565b5b146106e5576040517f08c379a00000000000000000000000000000000000000000000000000000000081526004016106dc90611dc2565b60405180910390fd5b6040516020016106f490611e08565b60405160208183030381529060405280519060200120828260405160200161071d929190611e64565b6040516020818303038152906040528051906020012003610773576040517f08c379a000000000000000000000000000000000000000000000000000000000815260040161076a90611efa565b60405180910390fd5b61077b61155a565b82828080601f016020809104026020016040519081016040528093929190818152602001838380828437600081840152601f19601f820116905080830192505050505050508160000181905250600381908060018154018082558091505060019003906000526020600020906002020160009091909190915060008201518160000190816108099190612155565b506020820151816001015550507f92e393e9b54e2f801d3ea4beb0c5e71a21cc34a5d34b77d0fb8a3aa1650dc18f60016003805490506108499190612227565b60405161085691906119d4565b60405180910390a1505050565b61086b611410565b6004600581111561087f5761087e6118d4565b5b600260009054906101000a900460ff1660058111156108a1576108a06118d4565b5b146108e1576040517f08c379a00000000000000000000000000000000000000000000000000000000081526004016108d8906122cd565b60405180910390fd5b6005600260006101000a81548160ff02191690836005811115610907576109066118d4565b5b02179055507f0a97a4ee45751e2abf3e4fc8946939630b11b371ea8ae39ccdc3056e98f5cc3f6004600560405161093f9291906122ed565b60405180910390a1565b6060600460003373ffffffffffffffffffffffffffffffffffffffff1673ffffffffffffffffffffffffffffffffffffffff16815260200190815260200160002060000160009054906101000a900460ff166109da576040517f08c379a00000000000000000000000000000000000000000000000000000000081526004016109d190611b1d565b60405180910390fd5b6003805480602002602001604051908101604052809291908181526020016000905b82821015610aca5783829060005260206000209060020201604051806040016040529081600082018054610a2f90611f78565b80601f0160208091040260200160405190810160405280929190818152602001828054610a5b90611f78565b8015610aa85780601f10610a7d57610100808354040283529160200191610aa8565b820191906000526020600020905b815481529060010190602001808311610a8b57829003601f168201915b50505050508152602001600182015481525050815260200190600101906109fc565b50505050905090565b610adb611410565b610ae5600061148e565b565b60008060009054906101000a900473ffffffffffffffffffffffffffffffffffffffff16905090565b600260009054906101000a900460ff1681565b610b2b61155a565b600460003373ffffffffffffffffffffffffffffffffffffffff1673ffffffffffffffffffffffffffffffffffffffff16815260200190815260200160002060000160009054906101000a900460ff16610bba576040517f08c379a0000000000000000000000000000000000000000000000000000000008152600401610bb190611b1d565b60405180910390fd5b60038281548110610bce57610bcd611ca7565b5b9060005260206000209060020201604051806040016040529081600082018054610bf790611f78565b80601f0160208091040260200160405190810160405280929190818152602001828054610c2390611f78565b8015610c705780601f10610c4557610100808354040283529160200191610c70565b820191906000526020600020905b815481529060010190602001808311610c5357829003601f168201915b505050505081526020016001820154815250509050919050565b610c92611410565b60036005811115610ca657610ca56118d4565b5b600260009054906101000a900460ff166005811115610cc857610cc76118d4565b5b14610d08576040517f08c379a0000000000000000000000000000000000000000000000000000000008152600401610cff90611baf565b60405180910390fd5b6004600260006101000a81548160ff02191690836005811115610d2e57610d2d6118d4565b5b02179055507f0a97a4ee45751e2abf3e4fc8946939630b11b371ea8ae39ccdc3056e98f5cc3f60036004604051610d669291906122ed565b60405180910390a1565b60015481565b610d7e611410565b60006005811115610d9257610d916118d4565b5b600260009054906101000a900460ff166005811115610db457610db36118d4565b5b14610df4576040517f08c379a0000000000000000000000000000000000000000000000000000000008152600401610deb90612388565b60405180910390fd5b6001600260006101000a81548160ff02191690836005811115610e1a57610e196118d4565b5b0217905550610e2761155a565b6040518060400160405280600781526020017f47454e4553495300000000000000000000000000000000000000000000000000815250816000018190525060038190806001815401808255809150506001900390600052602060002090600202016000909190919091506000820151816000019081610ea69190612155565b506020820151816001015550507f0a97a4ee45751e2abf3e4fc8946939630b11b371ea8ae39ccdc3056e98f5cc3f60006001604051610ee69291906122ed565b60405180910390a150565b610ef9611410565b60016005811115610f0d57610f0c6118d4565b5b600260009054906101000a900460ff166005811115610f2f57610f2e6118d4565b5b14610f6f576040517f08c379a0000000000000000000000000000000000000000000000000000000008152600401610f669061241a565b60405180910390fd5b60028060006101000a81548160ff02191690836005811115610f9457610f936118d4565b5b02179055507f0a97a4ee45751e2abf3e4fc8946939630b11b371ea8ae39ccdc3056e98f5cc3f60016002604051610fcc9291906122ed565b60405180910390a1565b610fde611574565b600460003373ffffffffffffffffffffffffffffffffffffffff1673ffffffffffffffffffffffffffffffffffffffff16815260200190815260200160002060000160009054906101000a900460ff1661106d576040517f08c379a000000000000000000000000000000000000000000000000000000000815260040161106490611b1d565b60405180910390fd5b600460008373ffffffffffffffffffffffffffffffffffffffff1673ffffffffffffffffffffffffffffffffffffffff1681526020019081526020016000206040518060600160405290816000820160009054906101000a900460ff161515151581526020016000820160019054906101000a900460ff161515151581526020016001820154815250509050919050565b611106611410565b6002600581111561111a576111196118d4565b5b600260009054906101000a900460ff16600581111561113c5761113b6118d4565b5b1461117c576040517f08c379a0000000000000000000000000000000000000000000000000000000008152600401611173906124ac565b60405180910390fd5b6003600260006101000a81548160ff021916908360058111156111a2576111a16118d4565b5b02179055507f0a97a4ee45751e2abf3e4fc8946939630b11b371ea8ae39ccdc3056e98f5cc3f600260036040516111da9291906122ed565b60405180910390a1565b6111ec611410565b600073ffffffffffffffffffffffffffffffffffffffff168173ffffffffffffffffffffffffffffffffffffffff160361125b576040517f08c379a00000000000000000000000000000000000000000000000000000000081526004016112529061253e565b60405180910390fd5b6112648161148e565b50565b61126f611410565b60006005811115611283576112826118d4565b5b600260009054906101000a900460ff1660058111156112a5576112a46118d4565b5b146112e5576040517f08c379a00000000000000000000000000000000000000000000000000000000081526004016112dc906125d0565b60405180910390fd5b60011515600460008373ffffffffffffffffffffffffffffffffffffffff1673ffffffffffffffffffffffffffffffffffffffff16815260200190815260200160002060000160009054906101000a900460ff1615150361137b576040517f08c379a00000000000000000000000000000000000000000000000000000000081526004016113729061263c565b60405180910390fd5b6001600460008373ffffffffffffffffffffffffffffffffffffffff1673ffffffffffffffffffffffffffffffffffffffff16815260200190815260200160002060000160006101000a81548160ff0219169083151502179055507fb6be2187d059cc2a55fe29e0e503b566e1e0f8c8780096e185429350acffd3dd8160405161140591906118b9565b60405180910390a150565b611418611552565b73ffffffffffffffffffffffffffffffffffffffff16611436610ae7565b73ffffffffffffffffffffffffffffffffffffffff161461148c576040517f08c379a0000000000000000000000000000000000000000000000000000000008152600401611483906126a8565b60405180910390fd5b565b60008060009054906101000a900473ffffffffffffffffffffffffffffffffffffffff169050816000806101000a81548173ffffffffffffffffffffffffffffffffffffffff021916908373ffffffffffffffffffffffffffffffffffffffff1602179055508173ffffffffffffffffffffffffffffffffffffffff168173ffffffffffffffffffffffffffffffffffffffff167f8be0079c531659141344cd1fd0a4f28419497f9722a3daafe3b4186f6b6457e060405160405180910390a35050565b600033905090565b604051806040016040528060608152602001600081525090565b6040518060600160405280600015158152602001600015158152602001600081525090565b600080fd5b600080fd5b6000819050919050565b6115b6816115a3565b81146115c157600080fd5b50565b6000813590506115d3816115ad565b92915050565b6000602082840312156115ef576115ee611599565b5b60006115fd848285016115c4565b91505092915050565b600080fd5b600080fd5b600080fd5b60008083601f84011261162b5761162a611606565b5b8235905067ffffffffffffffff8111156116485761164761160b565b5b60208301915083600182028301111561166457611663611610565b5b9250929050565b6000806020838503121561168257611681611599565b5b600083013567ffffffffffffffff8111156116a05761169f61159e565b5b6116ac85828601611615565b92509250509250929050565b600081519050919050565b600082825260208201905092915050565b6000819050602082019050919050565b600081519050919050565b600082825260208201905092915050565b60005b8381101561171e578082015181840152602081019050611703565b60008484015250505050565b6000601f19601f8301169050919050565b6000611746826116e4565b61175081856116ef565b9350611760818560208601611700565b6117698161172a565b840191505092915050565b61177d816115a3565b82525050565b600060408301600083015184820360008601526117a0828261173b565b91505060208301516117b56020860182611774565b508091505092915050565b60006117cc8383611783565b905092915050565b6000602082019050919050565b60006117ec826116b8565b6117f681856116c3565b935083602082028501611808856116d4565b8060005b85811015611844578484038952815161182585826117c0565b9450611830836117d4565b925060208a0199505060018101905061180c565b50829750879550505050505092915050565b6000602082019050818103600083015261187081846117e1565b905092915050565b600073ffffffffffffffffffffffffffffffffffffffff82169050919050565b60006118a382611878565b9050919050565b6118b381611898565b82525050565b60006020820190506118ce60008301846118aa565b92915050565b7f4e487b7100000000000000000000000000000000000000000000000000000000600052602160045260246000fd5b60068110611914576119136118d4565b5b50565b600081905061192582611903565b919050565b600061193582611917565b9050919050565b6119458161192a565b82525050565b6000602082019050611960600083018461193c565b92915050565b60006040830160008301518482036000860152611983828261173b565b91505060208301516119986020860182611774565b508091505092915050565b600060208201905081810360008301526119bd8184611966565b905092915050565b6119ce816115a3565b82525050565b60006020820190506119e960008301846119c5565b92915050565b6119f881611898565b8114611a0357600080fd5b50565b600081359050611a15816119ef565b92915050565b600060208284031215611a3157611a30611599565b5b6000611a3f84828501611a06565b91505092915050565b60008115159050919050565b611a5d81611a48565b82525050565b606082016000820151611a796000850182611a54565b506020820151611a8c6020850182611a54565b506040820151611a9f6040850182611774565b50505050565b6000606082019050611aba6000830184611a63565b92915050565b600082825260208201905092915050565b7f596f75277265206e6f74206120766f7465720000000000000000000000000000600082015250565b6000611b07601283611ac0565b9150611b1282611ad1565b602082019050919050565b60006020820190508181036000830152611b3681611afa565b9050919050565b7f566f74696e672073657373696f6e20686176656e74207374617274656420796560008201527f7400000000000000000000000000000000000000000000000000000000000000602082015250565b6000611b99602183611ac0565b9150611ba482611b3d565b604082019050919050565b60006020820190508181036000830152611bc881611b8c565b9050919050565b7f596f75206861766520616c726561647920766f74656400000000000000000000600082015250565b6000611c05601683611ac0565b9150611c1082611bcf565b602082019050919050565b60006020820190508181036000830152611c3481611bf8565b9050919050565b7f50726f706f73616c206e6f7420666f756e640000000000000000000000000000600082015250565b6000611c71601283611ac0565b9150611c7c82611c3b565b602082019050919050565b60006020820190508181036000830152611ca081611c64565b9050919050565b7f4e487b7100000000000000000000000000000000000000000000000000000000600052603260045260246000fd5b7f4e487b7100000000000000000000000000000000000000000000000000000000600052601160045260246000fd5b6000611d10826115a3565b91507fffffffffffffffffffffffffffffffffffffffffffffffffffffffffffffffff8203611d4257611d41611cd6565b5b600182019050919050565b6000604082019050611d6260008301856118aa565b611d6f60208301846119c5565b9392505050565b7f50726f706f73616c7320617265206e6f7420616c6c6f77656420796574000000600082015250565b6000611dac601d83611ac0565b9150611db782611d76565b602082019050919050565b60006020820190508181036000830152611ddb81611d9f565b9050919050565b50565b6000611df2600083611ac0565b9150611dfd82611de2565b600082019050919050565b60006020820190508181036000830152611e2181611de5565b9050919050565b82818337600083830152505050565b6000611e438385611ac0565b9350611e50838584611e28565b611e598361172a565b840190509392505050565b60006020820190508181036000830152611e7f818486611e37565b90509392505050565b7f566f7573206e6520706f7576657a20706173206e65207269656e2070726f706f60008201527f7365720000000000000000000000000000000000000000000000000000000000602082015250565b6000611ee4602383611ac0565b9150611eef82611e88565b604082019050919050565b60006020820190508181036000830152611f1381611ed7565b9050919050565b7f4e487b7100000000000000000000000000000000000000000000000000000000600052604160045260246000fd5b7f4e487b7100000000000000000000000000000000000000000000000000000000600052602260045260246000fd5b60006002820490506001821680611f9057607f821691505b602082108103611fa357611fa2611f49565b5b50919050565b60008190508160005260206000209050919050565b60006020601f8301049050919050565b600082821b905092915050565b60006008830261200b7fffffffffffffffffffffffffffffffffffffffffffffffffffffffffffffffff82611fce565b6120158683611fce565b95508019841693508086168417925050509392505050565b6000819050919050565b600061205261204d612048846115a3565b61202d565b6115a3565b9050919050565b6000819050919050565b61206c83612037565b61208061207882612059565b848454611fdb565b825550505050565b600090565b612095612088565b6120a0818484612063565b505050565b5b818110156120c4576120b960008261208d565b6001810190506120a6565b5050565b601f821115612109576120da81611fa9565b6120e384611fbe565b810160208510156120f2578190505b6121066120fe85611fbe565b8301826120a5565b50505b505050565b600082821c905092915050565b600061212c6000198460080261210e565b1980831691505092915050565b6000612145838361211b565b9150826002028217905092915050565b61215e826116e4565b67ffffffffffffffff81111561217757612176611f1a565b5b6121818254611f78565b61218c8282856120c8565b600060209050601f8311600181146121bf57600084156121ad578287015190505b6121b78582612139565b86555061221f565b601f1984166121cd86611fa9565b60005b828110156121f5578489015182556001820191506020850194506020810190506121d0565b86831015612212578489015161220e601f89168261211b565b8355505b6001600288020188555050505b505050505050565b6000612232826115a3565b915061223d836115a3565b925082820390508181111561225557612254611cd6565b5b92915050565b7f43757272656e7420737461747573206973206e6f7420766f74696e672073657360008201527f73696f6e20656e64656400000000000000000000000000000000000000000000602082015250565b60006122b7602a83611ac0565b91506122c28261225b565b604082019050919050565b600060208201905081810360008301526122e6816122aa565b9050919050565b6000604082019050612302600083018561193c565b61230f602083018461193c565b9392505050565b7f5265676973746572696e672070726f706f73616c732063616e7420626520737460008201527f6172746564206e6f770000000000000000000000000000000000000000000000602082015250565b6000612372602983611ac0565b915061237d82612316565b604082019050919050565b600060208201905081810360008301526123a181612365565b9050919050565b7f5265676973746572696e672070726f706f73616c7320686176656e742073746160008201527f7274656420796574000000000000000000000000000000000000000000000000602082015250565b6000612404602883611ac0565b915061240f826123a8565b604082019050919050565b60006020820190508181036000830152612433816123f7565b9050919050565b7f5265676973746572696e672070726f706f73616c73207068617365206973206e60008201527f6f742066696e6973686564000000000000000000000000000000000000000000602082015250565b6000612496602b83611ac0565b91506124a18261243a565b604082019050919050565b600060208201905081810360008301526124c581612489565b9050919050565b7f4f776e61626c653a206e6577206f776e657220697320746865207a65726f206160008201527f6464726573730000000000000000000000000000000000000000000000000000602082015250565b6000612528602683611ac0565b9150612533826124cc565b604082019050919050565b600060208201905081810360008301526125578161251b565b9050919050565b7f566f7465727320726567697374726174696f6e206973206e6f74206f70656e2060008201527f7965740000000000000000000000000000000000000000000000000000000000602082015250565b60006125ba602383611ac0565b91506125c58261255e565b604082019050919050565b600060208201905081810360008301526125e9816125ad565b9050919050565b7f416c726561647920726567697374657265640000000000000000000000000000600082015250565b6000612626601283611ac0565b9150612631826125f0565b602082019050919050565b6000602082019050818103600083015261265581612619565b9050919050565b7f4f776e61626c653a2063616c6c6572206973206e6f7420746865206f776e6572600082015250565b6000612692602083611ac0565b915061269d8261265c565b602082019050919050565b600060208201905081810360008301526126c181612685565b905091905056fea26469706673582212208a6812436e84b5a87e49d997e601df35af51c443bcb79046c2ba8b1b44d4a79064736f6c63430008110033",
  "immutableReferences": {},
  "source": "// SPDX-License-Identifier: MIT\n\npragma solidity 0.8.17;\nimport \"../node_modules/@openzeppelin/contracts/access/Ownable.sol\";\n\n/**\n * @title A voting system\n * @author Julien S. (forked from Cyril Castagnet)\n * @notice You can use this contract to automate a vote. Only the owner of the contract can change the workflowstatus and add new voters. Voters must be registered by the owner to add new proposals, to vote, or to get informations.\n */\ncontract Voting is Ownable {\n    /**\n     * @return winningProposalID An uint of the winning proposal ID.\n     */\n    uint256 public winningProposalID;\n\n    struct Voter {\n        bool isRegistered;\n        bool hasVoted;\n        uint256 votedProposalId;\n    }\n\n    struct Proposal {\n        string description;\n        uint256 voteCount;\n    }\n\n    enum WorkflowStatus {\n        RegisteringVoters,\n        ProposalsRegistrationStarted,\n        ProposalsRegistrationEnded,\n        VotingSessionStarted,\n        VotingSessionEnded,\n        VotesTallied\n    }\n\n    /**\n     * @return workflowStatus An uint of the current workflow status.\n     */\n    WorkflowStatus public workflowStatus;\n    Proposal[] proposalsArray;\n    mapping(address => Voter) voters;\n\n    /**\n     * @dev Emitted on each new registration of a voter.\n     */\n    event VoterRegistered(address voterAddress);\n\n    /**\n     * @dev Emitted when the workflow status has been changed.\n     */\n    event WorkflowStatusChange(\n        WorkflowStatus previousStatus,\n        WorkflowStatus newStatus\n    );\n\n    /**\n     * @dev Emitted when a new proposal has been registered.\n     */\n    event ProposalRegistered(uint256 proposalId);\n\n    /**\n     * @dev Emitted when a voter has voted.\n     */\n    event Voted(address voter, uint256 proposalId);\n\n    /**\n     * @dev Throws if called by any account other than a registered voter.\n     */\n    modifier onlyVoters() {\n        require(voters[msg.sender].isRegistered, \"You're not a voter\");\n        _;\n    }\n\n    // on peut faire un modifier pour les tats\n\n    // ::::::::::::: GETTERS ::::::::::::: //\n\n    /**\n     * @dev Returns the struct Voter of a given address.\n     * @param _addr The address of a voter.\n     * @return Voter A struct with isRegistered(bool) hasVoted(bool) and votedProposalId(uint).\n     *\n     * Get a voter informations.\n     *\n     * Requirements:\n     *\n     * - Only registered voters can call this function.\n     */\n    function getVoter(address _addr)\n        external\n        view\n        onlyVoters\n        returns (Voter memory)\n    {\n        return voters[_addr];\n    }\n\n    /**\n     * @dev Returns the struct Proposal of a given id.\n     * @param _id The id of a proposal.\n     * @return Proposal A struct with description(string) voteCount(uint).\n     *\n     * Get a proposal informations.\n     *\n     * Requirements:\n     *\n     * - Only registered voters can call this function.\n     */\n    function getOneProposal(uint256 _id)\n        external\n        view\n        onlyVoters\n        returns (Proposal memory)\n    {\n        return proposalsArray[_id];\n    }\n\n    /**\n     * @dev Returns an array of Proposal.\n     * @return Proposal[] A array of struct Proposal with description(string) voteCount(uint).\n     *\n     * Get all proposals informations.\n     *\n     * Requirements:\n     *\n     * - Only registered voters can call this function.\n     */\n    function getProposals()\n        external\n        view\n        onlyVoters\n        returns (Proposal[] memory)\n    {\n        return proposalsArray;\n    }\n\n    // ::::::::::::: REGISTRATION ::::::::::::: //\n\n    /**\n     * @dev Sets the variable isRegistered of struct Voter to true.\n     * @param _addr The address of the voter to register.\n     *\n     * Add an address to be registered as a voter.\n     *\n     * Emits a {VoterRegistered} event indicating the address registered.\n     *\n     * Requirements:\n     *\n     * - Only owner of the contract can call this function.\n     * - Workflow Status must be set to RegisteringVoters.\n     * - `_addr` must not be already registered.\n     */\n    function addVoter(address _addr) external onlyOwner {\n        require(\n            workflowStatus == WorkflowStatus.RegisteringVoters,\n            \"Voters registration is not open yet\"\n        );\n        require(voters[_addr].isRegistered != true, \"Already registered\");\n\n        voters[_addr].isRegistered = true;\n        emit VoterRegistered(_addr);\n    }\n\n    // ::::::::::::: PROPOSAL ::::::::::::: //\n\n    /**\n     * @dev Add a proposal to the array proposalsArray.\n     * @param _desc The description of the proposal to add.\n     *\n     * Add a new proposal.\n     *\n     * Emits a {ProposalRegistered} event indicating the id of the added proposal.\n     *\n     * Requirements:\n     *\n     * - Workflow Status must be set to ProposalsRegistrationStarted.\n     * - `_desc` must not be empty.\n     */\n    function addProposal(string calldata _desc) external onlyVoters {\n        require(\n            workflowStatus == WorkflowStatus.ProposalsRegistrationStarted,\n            \"Proposals are not allowed yet\"\n        );\n        require(\n            keccak256(abi.encode(_desc)) != keccak256(abi.encode(\"\")),\n            \"Vous ne pouvez pas ne rien proposer\"\n        ); // facultatif\n        // voir que desc est different des autres\n\n        Proposal memory proposal;\n        proposal.description = _desc;\n        proposalsArray.push(proposal);\n        emit ProposalRegistered(proposalsArray.length - 1);\n    }\n\n    // ::::::::::::: VOTE ::::::::::::: //\n\n    /**\n     * @dev Sets votedProposalId to the given id and hasVoted to true for the caller. Sets the winningProposalId if voteCount > actual winningProposalId.\n     * @param _id The id of the proposal to vote for.\n     *\n     * Vote for a proposal.\n     *\n     * Emits a {Voted} event indicating the address of the caller and the id of the voted proposal.\n     *\n     * Requirements:\n     *\n     * - Workflow Status must be set to VotingSessionStarted.\n     * - `_id` must exists.\n     * - Caller must not have already voted.\n     */\n    function setVote(uint256 _id) external onlyVoters {\n        require(\n            workflowStatus == WorkflowStatus.VotingSessionStarted,\n            \"Voting session havent started yet\"\n        );\n        require(voters[msg.sender].hasVoted != true, \"You have already voted\");\n        require(_id < proposalsArray.length, \"Proposal not found\"); // pas oblig, et pas besoin du >0 car uint\n\n        voters[msg.sender].votedProposalId = _id;\n        voters[msg.sender].hasVoted = true;\n        proposalsArray[_id].voteCount++;\n\n        if (\n            proposalsArray[_id].voteCount >\n            proposalsArray[winningProposalID].voteCount\n        ) {\n            winningProposalID = _id;\n        }\n\n        emit Voted(msg.sender, _id);\n    }\n\n    // ::::::::::::: STATE ::::::::::::: //\n\n    /**\n     * @dev Sets workflowStatus to ProposalsRegistrationStarted.\n     *\n     * Change the current status to ProposalsRegistrationStarted.\n     * Add a Genesis proposal with the id 0.\n     *\n     * Emits a {WorkflowStatusChange} event indicating the old status and the new status.\n     *\n     * Requirements:\n     *\n     * - Only owner of the contract can call this function.\n     * - Workflow Status must be set to RegisteringVoters.\n     */\n    function startProposalsRegistering() external onlyOwner {\n        require(\n            workflowStatus == WorkflowStatus.RegisteringVoters,\n            \"Registering proposals cant be started now\"\n        );\n        workflowStatus = WorkflowStatus.ProposalsRegistrationStarted;\n\n        Proposal memory proposal;\n        proposal.description = \"GENESIS\";\n        proposalsArray.push(proposal);\n\n        emit WorkflowStatusChange(\n            WorkflowStatus.RegisteringVoters,\n            WorkflowStatus.ProposalsRegistrationStarted\n        );\n    }\n\n    /**\n     * @dev Sets workflowStatus to ProposalsRegistrationEnded.\n     *\n     * Change the current status to ProposalsRegistrationEnded.\n     *\n     * Emits a {WorkflowStatusChange} event indicating the old status and the new status.\n     *\n     * Requirements:\n     *\n     * - Only owner of the contract can call this function.\n     * - Workflow Status must be set to ProposalsRegistrationStarted.\n     */\n    function endProposalsRegistering() external onlyOwner {\n        require(\n            workflowStatus == WorkflowStatus.ProposalsRegistrationStarted,\n            \"Registering proposals havent started yet\"\n        );\n        workflowStatus = WorkflowStatus.ProposalsRegistrationEnded;\n        emit WorkflowStatusChange(\n            WorkflowStatus.ProposalsRegistrationStarted,\n            WorkflowStatus.ProposalsRegistrationEnded\n        );\n    }\n\n    /**\n     * @dev Sets workflowStatus to VotingSessionStarted.\n     *\n     * Change the current status to VotingSessionStarted.\n     *\n     * Emits a {WorkflowStatusChange} event indicating the old status and the new status.\n     *\n     * Requirements:\n     *\n     * - Only owner of the contract can call this function.\n     * - Workflow Status must be set to ProposalsRegistrationEnded.\n     */\n    function startVotingSession() external onlyOwner {\n        require(\n            workflowStatus == WorkflowStatus.ProposalsRegistrationEnded,\n            \"Registering proposals phase is not finished\"\n        );\n        workflowStatus = WorkflowStatus.VotingSessionStarted;\n        emit WorkflowStatusChange(\n            WorkflowStatus.ProposalsRegistrationEnded,\n            WorkflowStatus.VotingSessionStarted\n        );\n    }\n\n    /**\n     * @dev Sets workflowStatus to VotingSessionEnded.\n     *\n     * Change the current status to VotingSessionEnded.\n     *\n     * Emits a {WorkflowStatusChange} event indicating the old status and the new status.\n     *\n     * Requirements:\n     *\n     * - Only owner of the contract can call this function.\n     * - Workflow Status must be set to VotingSessionStarted.\n     */\n    function endVotingSession() external onlyOwner {\n        require(\n            workflowStatus == WorkflowStatus.VotingSessionStarted,\n            \"Voting session havent started yet\"\n        );\n        workflowStatus = WorkflowStatus.VotingSessionEnded;\n        emit WorkflowStatusChange(\n            WorkflowStatus.VotingSessionStarted,\n            WorkflowStatus.VotingSessionEnded\n        );\n    }\n\n    /**\n     * @dev Sets workflowStatus to VotesTallied.\n     *\n     * Change the current status to VotesTallied.\n     *\n     * Emits a {WorkflowStatusChange} event indicating the old status and the new status.\n     *\n     * Requirements:\n     *\n     * - Only owner of the contract can call this function.\n     * - Workflow Status must be set to VotingSessionEnded.\n     */\n    function tallyVotes() external onlyOwner {\n        require(\n            workflowStatus == WorkflowStatus.VotingSessionEnded,\n            \"Current status is not voting session ended\"\n        );\n        workflowStatus = WorkflowStatus.VotesTallied;\n        emit WorkflowStatusChange(\n            WorkflowStatus.VotingSessionEnded,\n            WorkflowStatus.VotesTallied\n        );\n    }\n}\n",
  "sourcePath": "/home/tehjul/dev/CoursAlyra/voting-system-dapp/truffle/contracts/voting.sol",
  "compiler": {
    "name": "solc",
    "version": "0.8.17+commit.8df45f5f.Emscripten.clang"
  },
  "schemaVersion": "3.4.10",
  "updatedAt": "2022-11-21T11:29:27.106Z",
  "networkType": "ethereum",
  "devdoc": {
    "author": "Julien S. (forked from Cyril Castagnet)",
    "events": {
      "ProposalRegistered(uint256)": {
        "details": "Emitted when a new proposal has been registered."
      },
      "Voted(address,uint256)": {
        "details": "Emitted when a voter has voted."
      },
      "VoterRegistered(address)": {
        "details": "Emitted on each new registration of a voter."
      },
      "WorkflowStatusChange(uint8,uint8)": {
        "details": "Emitted when the workflow status has been changed."
      }
    },
    "kind": "dev",
    "methods": {
      "addProposal(string)": {
        "details": "Add a proposal to the array proposalsArray.",
        "params": {
          "_desc": "The description of the proposal to add. Add a new proposal. Emits a {ProposalRegistered} event indicating the id of the added proposal. Requirements: - Workflow Status must be set to ProposalsRegistrationStarted. - `_desc` must not be empty."
        }
      },
      "addVoter(address)": {
        "details": "Sets the variable isRegistered of struct Voter to true.",
        "params": {
          "_addr": "The address of the voter to register. Add an address to be registered as a voter. Emits a {VoterRegistered} event indicating the address registered. Requirements: - Only owner of the contract can call this function. - Workflow Status must be set to RegisteringVoters. - `_addr` must not be already registered."
        }
      },
      "endProposalsRegistering()": {
        "details": "Sets workflowStatus to ProposalsRegistrationEnded. Change the current status to ProposalsRegistrationEnded. Emits a {WorkflowStatusChange} event indicating the old status and the new status. Requirements: - Only owner of the contract can call this function. - Workflow Status must be set to ProposalsRegistrationStarted."
      },
      "endVotingSession()": {
        "details": "Sets workflowStatus to VotingSessionEnded. Change the current status to VotingSessionEnded. Emits a {WorkflowStatusChange} event indicating the old status and the new status. Requirements: - Only owner of the contract can call this function. - Workflow Status must be set to VotingSessionStarted."
      },
      "getOneProposal(uint256)": {
        "details": "Returns the struct Proposal of a given id.",
        "params": {
          "_id": "The id of a proposal."
        },
        "returns": {
          "_0": "Proposal A struct with description(string) voteCount(uint). Get a proposal informations. Requirements: - Only registered voters can call this function."
        }
      },
      "getProposals()": {
        "details": "Returns an array of Proposal.",
        "returns": {
          "_0": "Proposal[] A array of struct Proposal with description(string) voteCount(uint). Get all proposals informations. Requirements: - Only registered voters can call this function."
        }
      },
      "getVoter(address)": {
        "details": "Returns the struct Voter of a given address.",
        "params": {
          "_addr": "The address of a voter."
        },
        "returns": {
          "_0": "Voter A struct with isRegistered(bool) hasVoted(bool) and votedProposalId(uint). Get a voter informations. Requirements: - Only registered voters can call this function."
        }
      },
      "owner()": {
        "details": "Returns the address of the current owner."
      },
      "renounceOwnership()": {
        "details": "Leaves the contract without owner. It will not be possible to call `onlyOwner` functions anymore. Can only be called by the current owner. NOTE: Renouncing ownership will leave the contract without an owner, thereby removing any functionality that is only available to the owner."
      },
      "setVote(uint256)": {
        "details": "Sets votedProposalId to the given id and hasVoted to true for the caller. Sets the winningProposalId if voteCount > actual winningProposalId.",
        "params": {
          "_id": "The id of the proposal to vote for. Vote for a proposal. Emits a {Voted} event indicating the address of the caller and the id of the voted proposal. Requirements: - Workflow Status must be set to VotingSessionStarted. - `_id` must exists. - Caller must not have already voted."
        }
      },
      "startProposalsRegistering()": {
        "details": "Sets workflowStatus to ProposalsRegistrationStarted. Change the current status to ProposalsRegistrationStarted. Add a Genesis proposal with the id 0. Emits a {WorkflowStatusChange} event indicating the old status and the new status. Requirements: - Only owner of the contract can call this function. - Workflow Status must be set to RegisteringVoters."
      },
      "startVotingSession()": {
        "details": "Sets workflowStatus to VotingSessionStarted. Change the current status to VotingSessionStarted. Emits a {WorkflowStatusChange} event indicating the old status and the new status. Requirements: - Only owner of the contract can call this function. - Workflow Status must be set to ProposalsRegistrationEnded."
      },
      "tallyVotes()": {
        "details": "Sets workflowStatus to VotesTallied. Change the current status to VotesTallied. Emits a {WorkflowStatusChange} event indicating the old status and the new status. Requirements: - Only owner of the contract can call this function. - Workflow Status must be set to VotingSessionEnded."
      },
      "transferOwnership(address)": {
        "details": "Transfers ownership of the contract to a new account (`newOwner`). Can only be called by the current owner."
      }
    },
    "stateVariables": {
      "winningProposalID": {
        "return": "winningProposalID An uint of the winning proposal ID.",
        "returns": {
          "_0": "winningProposalID An uint of the winning proposal ID."
        }
      },
      "workflowStatus": {
        "return": "workflowStatus An uint of the current workflow status.",
        "returns": {
          "_0": "workflowStatus An uint of the current workflow status."
        }
      }
    },
    "title": "A voting system",
    "version": 1
  },
  "userdoc": {
    "kind": "user",
    "methods": {},
    "notice": "You can use this contract to automate a vote. Only the owner of the contract can change the workflowstatus and add new voters. Voters must be registered by the owner to add new proposals, to vote, or to get informations.",
    "version": 1
  }
}